:020000040000FA
:0400000072EF3FF06C
:107EA200026E8B9002C08CFF5FEC3FF01200026EFC
:107EB2008B8002C08CFF5FEC3FF012008B82410E80
:107EC200016EEE0EE82EFED7012EFCD700D08B926B
:107ED200410E016EEE0EE82EFED7012EFCD700D029
:107EE20012000A0EF66E7F0EF76E000EF86E00EEAE
:107EF20080F010EE64F00900F5CFEEFFE550E1509E
:107F0200FAE10001B7EF3FF068656C6C6F20776FA4
:107F1200726C6420746869732069732070696300ED
:107F2200000000000000000000000000000000004F
:107F3200000000000000000000000000000000003F
:107F4200000000000000000000000000000000002F
:107F5200000000000000000000000000000000001F
:107F6200000000000000000000000000000E826E11
:107F7200000E946E000E836E000E956E0F0EC16E93
:107F8200070EB46E380E51EC3FF00E0E51EC3FF07E
:107F9200010E51EC3FF020EE80F010EE03F0630E84
:107FA200DBCFE3FFE806FCE2D7EF3FF0000E686E9E
:107FB200000E676EEAEF3FF0030E6724D96E000EE3
:107FC2006820DA6EDF5058EC3FF0674A682AEAEF21
:107FD2003FF0030E6724D96E000E6820DA6EDF5080
:107FE200D8A4F6EF3FF0F8EF3FF0DDEF3FF0D7EF28
:0E7FF2003FF0D7EF3FF0D7EF3FF000EF00F089
:020000040020DA
:08000000FFFFFFFFFFFFFFFF00
:020000040030CA
:0E000000FF071F1FFF8385FF0FC00FE00F409B
:00000001FF
